:020000040800F2
:10000000F81000209D010008FF130008F3120008FB
:10001000FD130008A9020008E9170008000000000D
:100020000000000000000000000000005314000861
:10003000AB0200080000000001140008551400087D
:10004000B7010008B7010008B7010008B7010008B0
:10005000B7010008B7010008B7010008B7010008A0
:10006000B7010008B7010008B7010008B701000890
:10007000B7010008B7010008B7010008B701000880
:10008000B7010008B7010008B7010008B701000870
:10009000B7010008B7010008B7010008B701000860
:1000A000B7010008B7010008B7010008B701000850
:1000B000B7010008B7010008B7010008B701000840
:1000C000B7010008B7010008B7010008B701000830
:1000D000B7010008B1170008B7010008B701000810
:1000E000B7010008B7010008B7010008B701000810
:1000F000B7010008B7010008B7010008B701000800
:10010000B7010008B7010008B7010008B7010008EF
:10011000B7010008B7010008B7010008B7010008DF
:10012000B7010008B7010008B7010008B7010008CF
:10013000B7010008B7010008B7010008B7010008BF
:10014000B7010008B7010008B7010008B7010008AF
:10015000B7010008B7010008B7010008B70100089F
:10016000B7010008B7010008B7010008B70100088F
:10017000B7010008B7010008B7010008000000003F
:10018000B7010008B7010008DFF80CD000F07AF8DA
:10019000004800474D180008F81000200648804726
:1001A00006480047FEE7FEE7FEE7FEE7FEE7FEE75C
:1001B000FEE7FEE7FEE7FEE7E1140008890100081C
:1001C0002DE9F05F0546002092469B46884606468C
:1001D000814640241BE0284641464746224600F01F
:1001E00041F853465A46C01A914110D31146184659
:1001F000224600F028F82D1A67EB01084F462246E8
:100200000120002100F01FF817EB00094E41201ECD
:10021000A4F10104DFDC484631462A464346BDE8E6
:10022000F09FD2B201E000F8012B491EFBD27047CB
:100230000022F6E710B513460A4604461946FFF7B2
:10024000F0FF204610BD202A04DB203A00FA02F11C
:10025000002070479140C2F1200320FA03F31943B4
:1002600090407047202A04DB203A21FA02F0002156
:10027000704721FA02F3D040C2F1200291400843B6
:1002800019467047064C074D06E0E06840F0010350
:1002900094E8070098471034AC42F6D3FFF778FF94
:1002A000DC180008FC180008FEE77047002200F088
:1002B00001B8000030B50E4B054601205C7A002CD9
:1002C00014D1587A1C54587A03EB800045605D7A4B
:1002D00003F108002A54587A421C5A7230300870D0
:1002E0003A2048702F208870CC70002030BD00006C
:1002F000E800002090F83510022903D080214165E4
:1003000001207047052180F835100068016821F050
:1003100001010160002070472DE9F84F00224FF0E5
:10032000010803254FF00F0E0B6808FA02F4234072
:10033000A3426ED14E68012E05D0022E03D0112E9D
:1003400001D0122E12D186684FEA420C05FA0CF742
:10035000BE43CF6807FA0CF7374387604668A64369
:100360000C79C4F30014944034434460C6685700C9
:1003700005FA07FC8C6826EA0C06BC403443C460CE
:100380004C68022C01D0122C13D1D40800EB840449
:10039000A346D4F8209054074FEAD46A0EFA0AF61E
:1003A00029EA06090E6906FA0AF646EA0906CBF8B2
:1003B000206006680C7926EA0C0604F00304BC40B1
:1003C000344304604C68E40065D5364C266846F436
:1003D00080462660246822F0030604F480440094DA
:1003E000314C3444A446D4F808489607370F0EFA27
:1003F00007F6B4432D4EB04201D1002624E02C4E26
:10040000B04201D101261FE02A4EB04202D102269D
:100410001AE040E0284EB04201D1032614E0274EF6
:10042000B04201D104260FE0254EB04201D105268D
:100430000AE0244EB04201D1062605E0224EB04229
:1004400001D1072600E00826BE402643CCF8086804
:100450001E4E34684F689C43FF0300D51C43346034
:100460001A4C241D26684F689E43BF0300D51E43C7
:100470002660164E083634684F689C43FF0200D54C
:100480001C433460114E0C3634684F689C43BF02E5
:1004900000D51C433460521C102AFFF445AFBDE860
:1004A000F88F000044380240003001400000024054
:1004B0000004024000080240000C0240001002400C
:1004C0000014024000180240001C0240003C0140A1
:1004D00001488068704700002000002002488168C1
:1004E0000278114481607047200000200B4810B54D
:1004F000016841F400710160016841F480610160AC
:10050000016841F480710160032000F06FF8002061
:1005100000F006F800F024F8002010BD003C024076
:1005200070B50D4D04464FF47A712878B1FBF0F0A8
:100530000A490968B1FBF0F000F06CFD48B9102CD5
:1005400007D200222146501E00F030F800206C60D7
:1005500070BD012070BD0000200000202C00002094
:100560000A4808B5016841F480410160006800F460
:10057000804000900548001F016841F080510160F3
:10058000006800F08050009008BD00004438024030
:10059000002809DB00F01F02012191404009800082
:1005A00000F1E020C0F8001170470000F0B40E4BDD
:1005B0001B680C46C3F30223C3F10705042D00D9C1
:1005C0000425191D072901D2002300E0DB1E0126A6
:1005D00006FA05F1491E214099409E40761E1640BC
:1005E0003143F0BC01F001B90CED00E0064900F028
:1005F000070208684FF6FF03184040EA0220034A4A
:1006000010430860704700000CED00E00000FA05A0
:100610002DE9F843054600684FF00109C1074FF086
:10062000000601D1400727D5DFF80C81C8F86860C3
:10063000FFF74EFF0746414C05E000BFFFF748FFBC
:10064000C01B022857D820680001F7D468688101D0
:10065000287A41EA0070394984310860C8F8689006
:10066000FFF736FF074604E0FFF732FFC01B022802
:1006700041D820680001F7D52878800752D52F4847
:100680004030016841F08051016000682C4C00F05E
:1006900080500090206840F480702060FFF718FFC1
:1006A000074604E0FFF714FFC01B022823D8206888
:1006B000C005F7D5214C7034206810F4407020D06C
:1006C000A98901F4407181421BD020681D4920F4A2
:1006D0004070C1F800900E6020602068C00710D004
:1006E000FFF7F6FE064641F2883707E0FFF7F0FE17
:1006F000801BB84202D90320BDE8F8832068800738
:10070000F4D5E9680D48C1F301220830032A0BD063
:10071000016821F4F81101602068A989C1F30B0177
:10072000084320600020E7E70268074B22F4F81234
:1007300019400A430260EFE70000474200380240D8
:1007400000700040400E4742FFFCFF0F2DE9F047CC
:100750000E46050065D0DFF81481D8F80000F7B226
:1007600000F00F00B04207D288F80070D8F80000FF
:1007700000F00F00B04254D128683D4C810712D5DB
:10078000400703D5206840F4E05020602878000737
:1007900003D5206840F4604020602068A96820F0FC
:1007A000F000084320602878C0072DD030496868E1
:1007B0000839012812D0022813D0032811D0096863
:1007C000890700292DDA216821F003010143216006
:1007D000FFF77EFE814641F2883A0EE00968890300
:1007E000EFE709688901ECE7FFF772FEA0EB09016A
:1007F000514502D90320BDE8F0872068696800F000
:100800000C00B0EB810FEFD1D8F80010404601F09A
:100810000F01B14207D90770006800F00F00B04225
:1008200001D00120E7E72878400705D52068E9686E
:1008300020F4E050084320602878000706D520689F
:10084000296920F4604040EAC100206000F038F8D7
:100850002168084AC1F30311515CC8400649086089
:1008600006480068FFF75CFE0020C4E7003C024039
:1008700008380240C41800082C0000202400002082
:100880000448054900680968044AC1F38221515CA3
:10089000C84070472C00002008380240D4180008D7
:1008A0000448054900680968044AC1F34231515CB3
:1008B000C84070472C00002008380240D4180008B7
:1008C000154810B5006810F00C02144813D0411000
:1008D000042A0FD0082A0ED10F4C241F2268236847
:1008E00002F03F025B0207D52068C0F38810A0FB2E
:1008F000010106E0084610BD2168C1F38811A1FB83
:1009000000010023FFF75CFC2168C1F30141491C91
:100910004900B0FBF1F010BD083802400024F4009B
:100920002DE9F84F040076D02078DFF838A3CE4DBB
:10093000C00749D0DAF800105046C1F381010129FF
:1009400008D00068C0F3810002280AD1281D006881
:10095000400206D52868800336D560680028E2D0BA
:1009600032E06068B0F5803F10D0B0F5A02F286865
:1009700010D020F480302860286820F4802028607F
:100980006068A0B1FFF7A4FD06460CE0286840F4BB
:100990008030F4E740F480202860F7E7FFF798FD07
:1009A000801B642873D828688003F7D50CE0FFF714
:1009B0008FFD064605E000BFFFF78AFD801B642817
:1009C000F0D828688003F7D42078DFF8A082800769
:1009D0004FF000093ED5DAF80010504611F00C0F28
:1009E00009D00068C0F3810002280BD19D48001F88
:1009F0000068400206D42868800715D5E068012801
:100A000009D111E0E068B8B10120C8F80000FFF793
:100A10005FFD064605E020E1FFF75AFD801B022836
:100A2000C0D828688007F7D52868216920F0F80029
:100A300040EAC10028600DE0C8F80090FFF748FDCB
:100A4000064604E0FFF744FD801B02281FD82868F3
:100A50008007F7D42078000722D5824E8448616948
:100A60006C3671B101210160FFF732FD074604E0E9
:100A7000FFF72EFDC01B022809D830688007F7D584
:100A80000EE0C0F80090FFF723FD074605E082E086
:100A9000FFF71EFDC01B02287DD830688007F7D401
:100AA0002078400768D5DFF8BCB100270BF1380B80
:100AB000DBF80000C0000BD4DBF8001041F08051DF
:100AC000CBF80010DBF80000012700F08050009008
:100AD000684E3068C00510D4306840F480703060D3
:100AE000FFF7F6FC009005E0FFF7F2FC0099401AD2
:100AF000022850D83068C005F6D55A4EA06868362E
:100B000001280FD00528306810D020F00100306097
:100B1000306820F004003060A068B8B1FFF7D8FC5E
:100B200000900FE0306840F00100F4E740F004006E
:100B30003060F7E7FFF7CCFC0099411A41F28830AA
:100B4000814266D830688007F4D50EE0FFF7C0FC1C
:100B5000009007E0FFF7BCFC0099411A41F2883091
:100B6000814256D830688007F4D42FB1DBF80010EA
:100B700021F08051CBF80010A069D0B3DAF8002042
:100B80005146C2F38102022A4AD00228484607D0C1
:100B9000C8F8600000E03CE0FFF79AFC04463BE048
:100BA0004746C8F86000FFF793FC064605E000BF23
:100BB000FFF78EFC801B02282BD828688001F7D411
:100BC000D4E907010843A16A2B4A490802EB014115
:100BD000626A41EA8211084394F82C1040EA0161EC
:100BE0002048001F016001203866FFF771FC0446B1
:100BF00005E034E0FFF76CFC001B022809D82868E8
:100C00008001F7D52BE000BFFFF762FC001B022834
:100C100002D90320BDE8F88F28688001F4D41EE0D3
:100C20000128F7D00868E26900F48001914214D1EC
:100C3000226A00F03F0191420FD147F6C071626A0B
:100C40000140914209D1A26A00F44031914204D19D
:100C5000E16A00F07060884201D00120DAE70020EC
:100C6000D8E7000008380240003802400000474240
:100C7000800E4742007000400000FFFF70B5040086
:100C800002D0607F10B106E0012070BD0020207707
:100C9000204600F049F8022060772168CA204862A7
:100CA000216853204862204600F0B6FBFF25042649
:100CB00018BB206881681B4A1140816021688868E0
:100CC00062681043D4E904231A4310438860216802
:100CD000E068086120680169228941EA02410161F6
:100CE0002068C16821F08001C160206880688006AA
:100CF00007D4204600F0FEF818B1206845626677F8
:100D0000C2E72068016C21F4802101642068016C35
:100D1000A2691143016420684562012060770020C8
:100D200070BD0000BFFF8FFF00680349884202D1F9
:100D30000249012008607047002800403C0E4742ED
:100D40002DE9F0470446007F0B4601281FD04FF0E5
:100D5000010984F81C9002206077DAB19878D9787C
:100D600040EA014558781978000240EA41300543CD
:100D70002168CA204862216853204862204600F05A
:100D80004BFB0026FF274FF0040860BB1AE002204F
:100D9000BDE8F0875878C10603D500F0EF000A30AF
:100DA0005870D87800F02DFB0204587800F029FB29
:100DB00042EA0022987800F024FB0243187842EAC5
:100DC0004035D5E70F480540206845602068C16878
:100DD00021F08001C1602068806880060AD4204626
:100DE00000F088F830B12068476284F81D802677CB
:100DF0000120CDE72068476284F81D902677002007
:100E0000C6E700003FFFFF002DE9F0470446007FE2
:100E10000D46012827D04FF0010A84F81CA00220BB
:100E200060772068002680684FEA4060F2B10028B1
:100E300000DBEE70A878297840EA01476878E97805
:100E4000000240EA014007432168CA204862216845
:100E500053204862204600F0DFFA4FF0FF084FF0C1
:100E60000409A0BB16E00220BDE8F087002800DBE3
:100E7000EE70287800F0C5FA0204687800F0C1FA34
:100E800042EA0022A87800F0BCFA0243E87842EA7D
:100E90000047D9E716480740206807602068816846
:100EA00021F480218160D5E90301084321688A6823
:100EB000104388602068C16821F08001C16020680B
:100EC000806880060BD4204600F014F838B1216801
:100ED000C1F8248084F81D9026770120C4E721689A
:100EE000C1F8248084F81DA026770020BCE700000C
:100EF0007F7F7F0070B504460068C16821F0A001C3
:100F0000C160FFF7E5FA05464FF47A7607E000BFC7
:100F1000FFF7DEFA401BB04201D9032070BD206804
:100F2000C0688006F4D5002070BD70B5040005D0FF
:100F30000025A56294F8510010B106E0012070BDB3
:100F400084F85050204600F031F8022084F8510017
:100F50002068016821F040010160D4E901010843E3
:100F6000D4E903121143084361690843218B01F45A
:100F700000710843E1690843216A0843A16A0843F4
:100F800021680860A069042101EA1040616A0843F1
:100F9000216848602068C16921F40061C16165650C
:100FA000012084F85100002070BD000010B586B00B
:100FB000044614216846FFF73BF91349206888422C
:100FC00020D112480021026842F480520260006879
:100FD00000F4805005900D481438026842F0020277
:100FE0000260006800F002000590382000900220A6
:100FF000CDE90101032003900520049069460448CF
:10100000FFF78AF906B010BD0030014044380240B5
:101010000004024010B5401EB0F1807F01D30120D2
:1010200010BD4FF0E02460610F21601700F0DDFB80
:101030000020A06107202061002010BD7047000043
:1010400070B5026804461068D168536910F00F0F3C
:1010500052D003F0010501F490762E435FD0C20711
:1010600005D0CA0503D5E26B42F00102E2634207F4
:1010700005D5DA0703D0E26B42F00202E263820791
:1010800005D5DA0703D0E26B42F00402E2630207FF
:1010900007D501F020022A4303D0E26B42F0080298
:1010A000E263E26B002A33D0800604D5880602D5BD
:1010B000204600F039FA20684069E16BC0F38010E7
:1010C000090700D428B3204600F020FA20684169BF
:1010D00049061AD5416921F040014161606BA0B118
:1010E0001B490165606BFFF705F9002810D0606BA4
:1010F000016DBDE870400847830610D58B060ED5FC
:101100002046BDE8704000F00FBA2046FFF796FF7A
:1011100070BD2046FFF792FF0020E06370BD03061C
:1011200006D50B0604D52046BDE8704000F0DCBAB9
:101130004006F3D54806F1D5D168204621F040019C
:10114000D160202184F8391000F0D2F870BD000081
:10115000FD14000870B5040004D094F8390000258F
:1011600010B106E0012070BD84F83850204600F030
:1011700023F8242084F839002068C16821F4005144
:10118000C160204600F01CFA2068016921F49041FA
:1011900001612068416921F02A0141612068C1682C
:1011A00041F40051C160E563202084F8390084F8DF
:1011B0003A00002070BD000010B586B0044614212E
:1011C0006846FFF735F818492068884229D1174842
:1011D000016841F010010160006800F01000059006
:1011E00012481438016841F0010101600068694645
:1011F00000F0010005904FF4C060009002200190C3
:101200000120029003200390072004900848FFF774
:1012100083F8002211462520FFF7C8F92520FFF7A3
:10122000B7F906B010BD000000100140443802407C
:101230000000024070472DE9F843044690F8390059
:101240001F4616460D46202850D1B5B1AEB194F8D0
:10125000380001284AD0012084F838004FF00008F7
:10126000C4F83C80212084F83900FFF731F9A684C6
:101270008146E68484F8388026E00120BDE8F883C2
:10128000E08C401EE084A0684B46B0F5805F4FF0D4
:1012900000024FF080012046009703D000F055FA7D
:1012A000E8B90DE000F051FAC8B928882168C0F308
:1012B00008004860206908B16D1C05E0AD1C03E022
:1012C000216815F8010B4860E08C0028D8D14B4606
:1012D000002240212046009700F037FA08B1032091
:1012E000CCE7202084F839000020C7E70220C5E7BA
:1012F0007047FEE710B504490448FEF7D7FF0249DE
:10130000491E087010BD00001900002004000020D4
:10131000114808B5016841F004010160016801F05D
:1013200004010091016841F080010160016801F051
:1013300080010091016841F001010160016801F044
:1013400001010091016841F002010160006800F0B4
:101350000200009008BD00003038024010B586B091
:1013600014216846FEF764FF1648002414490594CA
:10137000C0E900147F218160FF21C0E903144461AA
:101380008461FFF77BFC8DF800408DF801408DF8FB
:1013900002400394012269460A480494FFF734FD91
:1013A00001208DF814008DF815008DF81600024606
:1013B0008DF8174005A90348FFF7C2FC06B010BD21
:1013C00000280040300000200B480A494FF400720A
:1013D00001604FF48271416000218160C160016150
:1013E000C0E90512C1610162416281620A21C162E4
:1013F000FFF79BBD0030014050000020FEE7704722
:101400007047002102E00A38C0B2491C0A28FAD20B
:10141000090740EA1160704770B504460068C1686A
:10142000490614D44FF0FF31C160FFF751F805466B
:101430004FF47A7607E000BFFFF74AF8401BB0424E
:1014400001D9032070BD2068C0684006F4D5002093
:1014500070BD7047FFF742B830B597B0302168468D
:10146000FEF7E6FE14210CA8FEF7E2FE00241A485F
:101470001194129413941494016841F08051016006
:10148000006800F0805015901448016841F48041D4
:1014900001600068012500F480401590052000904F
:1014A0004FF480300694CDE901056846FFF738FA1D
:1014B0000F200C90CDE90D540F9400210CA810942E
:1014C000FFF744F902201190C001149011A8FFF712
:1014D0009FF817B030BD0000403802400070004057
:1014E0000548016841F47001016003494FF0006054
:1014F000803908607047000088ED00E010B5806B0F
:101500000021C185C184FFF799FD10BD0168CA683B
:1015100022F49072CA6001684A6922F001024A61AD
:10152000202180F83A10704710B590F83A1022291F
:1015300001D0022010BD8168B1F5805F11D0016932
:10154000002901681FD0496801F07F03816A4A1CA5
:1015500082620B70C18D491E0904090CC18518D027
:101560002BE00269816A002A0268526805D0D2B273
:101570000A80816A491C8162ECE7C2F308020A8092
:10158000816A891CF7E74A68816A4B1C83620A708A
:10159000E0E70168CA6822F02002CA600168CA68F0
:1015A00022F48072CA6001684A6922F001024A612D
:1015B000202180F83A10FFF73DFE002010BD00000A
:1015C0002DE9F041044600680169E26821F44051C8
:1015D000114301612169A068E2690843616911430F
:1015E00008432168CA6849F20C639A430243CA60FF
:1015F00020684169A26921F4407111434161E069A9
:10160000192764253226B0F5004F354A3549206840
:101610004FF0000806D0884201D0904236D1FFF743
:101620003FF935E0884201D0904202D1FFF738F906
:1016300001E0FFF725F961684A18A0FB070148EBB4
:101640000803FEF7BDFD0146B0FBF5F00201B1FB5A
:10165000F5F06FF01803584301EB800006EBC00073
:10166000B0FBF5F000F0F80002EB4002B1FBF5F042
:10167000584301EB800006EBC000B0FBF5F000F032
:101680000700216810448860BDE8F081FFF7F8F892
:1016900061688B0F8A00A0FB0701FEF791FD0146F0
:1016A000B0FBF5F06FF01802504301EB800006EB41
:1016B0000010B0FBF5F000F0F002B1FBF5F002EB2A
:1016C0000012B1FBF5F06FF01803584301EB8000F6
:1016D00006EB0010B0FBF5F000F00F00D1E70000C2
:1016E000001401400010014090F83910212901D068
:1016F000022070478168B1F5805F016A0BD04A1CF7
:101700000262026809785160C18C491E0904090C03
:10171000C1840ED017E009880268C1F30801516046
:1017200001690029016A02D0491C0162ECE7891CA9
:10173000FBE70168CA6822F08002CA600068C168DD
:1017400041F04001C160002070472DE9F04198460A
:1017500017460E460446069D1DE0681C1BD02DB1A1
:10176000FEF7B6FEA0EB0800A84214D92068C168B5
:1017700021F4D071C1602068416921F0010141610B
:10178000202084F8390084F83A00002084F83800DA
:101790000320BDE8F0812068006836EA000004D02C
:1017A0000020B842D9D00020F3E70120F9E700007B
:1017B0000148FFF745BC0000A800002002480121B5
:1017C0000170007870470000000000200120704781
:1017D0000020704702480121017000787047000026
:1017E0000000002000207047FEE70907090E0028CE
:1017F00004DB00F1E02080F80014704700F00F00D7
:1018000000F1E02080F8141D704702E008C8121FA4
:1018100008C1002AFAD170477047002001E001C1D9
:10182000121F002AFBD170474FF4FA5148434FF082
:10183000E02148610020886101220A610A69D3071A
:1018400001D0D203FAD50861886170471FB517A08F
:101850000FC88DE80F00FEF749FEFFF7FDFDFFF70B
:1018600057FDFFF77BFDFFF7AFFD154813490C222D
:1018700001604FF41651416000218160C160C0E9F0
:1018800004128161C161FFF765FCFFF733FD4FF67C
:10189000FF744FF47A752346102269460848FFF713
:1018A000CAFC2846FFF7C0FFF5E7000048656C6CEE
:1018B0006F20576F726C642121210A0000100140D3
:1018C000A800002000000000000000000102030446
:1018D000060708090000000001020304FC180008C4
:1018E00000000020300000000A1800082C19000831
:1018F00030000020C81000001A1800080100000085
:10190000BD170008D5170008D1170008E517000813
:10191000CD170008000000000000000001000000DA
:0C19200010000000000000000024F40093
:040000050800018965
:00000001FF
