:020000040800F2
:10000000980C0020290200086B170008A9130008AB
:1000100069170008C50300087D1F000800000000E4
:10002000000000000000000000000000DF190008D0
:10003000C7030008000000008D170008E119000840
:10004000430200084302000843020008430200087C
:10005000430200084302000843020008430200086C
:10006000430200084302000843020008430200085C
:10007000430200084302000843020008430200084C
:10008000430200084302000843020008430200083C
:10009000430200084302000843020008430200082C
:1000A000430200084302000843020008430200081C
:1000B000430200084302000843020008430200080C
:1000C00043020008430200084302000843020008FC
:1000D00043020008111F0008430200084302000801
:1000E00043020008430200084302000843020008DC
:1000F00043020008430200084302000843020008CC
:1001000043020008430200084302000843020008BB
:1001100043020008430200084302000843020008AB
:10012000430200084302000843020008430200089B
:10013000430200084302000843020008430200088B
:10014000430200084302000843020008430200087B
:10015000430200084302000843020008430200086B
:10016000430200084302000843020008430200085B
:1001700043020008430200080000000000000000E5
:10018000430200084302000800F002F800F03CF8C7
:100190000AA090E8000C82448344AAF10107DA45E2
:1001A00001D100F031F8AFF2090EBAE80F0013F0F8
:1001B000010F18BFFB1A43F00103184740A30100C9
:1001C00060A30100103A24BF78C878C1FAD852075A
:1001D00024BF30C830C144BF04680C6070470000C1
:1001E0000023002400250026103A28BF78C1FBD840
:1001F000520728BF30C148BF0B6070471FB501F0E0
:1002000035FF1FBD10B510BD00F0AAF81146FFF76D
:10021000F5FF01F0E7FE00F0C8F803B4FFF7F2FFC6
:1002200003BC01F0ACFE00000948804709480047C4
:10023000FEE7FEE7FEE7FEE7FEE7FEE7FEE7FEE796
:10024000FEE7FEE704480549054A064B70470000F3
:10025000551A00088901000898060020980C002013
:100260009808002098080020704753EA020C00F01C
:1002700069802DE9F04B4FF00006002B1FBFB3FA49
:1002800083F503FA05F424FA05F65E4012BF16431F
:10029000B2FA82F502FA05F4C5F120051EBF22FA72
:1002A00005FC44EA0C04203556EA044C4FEA144499
:1002B00018BF641C4FF000084FF00009904271EB2A
:1002C000030C39D3002919BFB1FA81F701FA07F6F7
:1002D000B0FA80F700FA07F6C7F120071EBF20FA30
:1002E00007FC46EA0C062037B6FBF4FCA7EB050733
:1002F000103F07F01F0BCBF120060CFA0BFB2CFA7A
:1003000006F644BFB3460026202FA4BF5E464FF03A
:10031000000B5BEA060C08BF4FF0010B19EB0B0951
:10032000ABFB027C48EB0608C01B06FB02CC0BFBB8
:1003300003CC71EB0C01C1E70B460246414648462F
:10034000BDE8F08B13B54FF000004FF00001AFF3A4
:100350000080BDE81C407047704770477047704789
:10036000754600F02BF8AE4605006946534620F06E
:100370000700854618B020B5FFF764FFBDE82040B0
:100380004FF000064FF000074FF000084FF0000B51
:1003900021F00701AC46ACE8C009ACE8C009ACE804
:1003A000C009ACE8C0098D46704710B50446AFF3EC
:1003B00000802046BDE81040FFF72FBF004870477F
:1003C00034060020FEE7704708B5034AF023009288
:1003D0001A4601F063F908BD746C000810B590F876
:1003E00025100024022903D00421C16301241AE04E
:1003F00001680A6822F00E020A6001680A6822F0A9
:1004000001020A6090F84410012301F01C0203FA73
:1004100002F1026C516080F82530002180F8241030
:10042000816B01B18847204610BD00002DE9F84FCF
:10043000DFF8A091002209F1040A0AF1040B4FF041
:100440000F080BF1040EBEE001249440234075D048
:100450004D68022D01D0122D11D1D50800EB850772
:100460003E6A5507ED0E08FA05FC26EA0C06D1F89F
:1004700010C00CFA05FC4CEA060CC7F820C007684F
:100480005500032691F804C0AE400CF0030CB743AE
:100490000CFA05FC4CEA070CC0F800C04F68012FAD
:1004A00005D0022F03D0112F01D0122F15D187684C
:1004B000D1F80CC0B7430CFA05FC4CEA070CC0F8A5
:1004C00008C0476891F804C0A743CCF3001C0CFA9D
:1004D00002FC4CEA070CC0F804C0D1F804C06FEA73
:1004E0000C07BF0706D1C76AA743CCF3C0049440EA
:1004F0003C43C462C468B4438E68AE402643C660C1
:100500004C68E4005ED5344C256E45F00105256647
:10051000246E22F0030504F0010400942F4C2E19E0
:10052000B7689407250F08FA05F4A743B0F1904F78
:1005300005D02B4CA04204D101241CE042E0002451
:1005400019E0284CA04201D1022414E0264CA0421C
:1005500001D103240FE0254CA04201D104240AE07C
:10056000234CA04201D1052405E0224CA04201D138
:10057000062400E00724AC403C43B460D9F80040B6
:100580004D464E689C43F60300D51C432C60DAF8B8
:10059000004055464E689C43B60300D51C432C6072
:1005A000DBF800405D464E689C43F60200D51C43D4
:1005B0002C60DEF8004075464E689C43B60200D5BC
:1005C0001C432C60521C0B6833FA02F47FF43CAFDE
:1005D00000F012B800040140001002400000014089
:1005E0000004004800080048000C004800100048C3
:1005F000001400480018004818BCBDE8E08F4269AC
:100600004A40426170470AB1816170478162704718
:10061000014800687047000004000020024801689B
:10062000491C0160704700000400002010B5002440
:10063000052000F04FF8002000F008F808B1012470
:1006400001E000F01BF8204610BD000070B5054623
:1006500009484FF47A7100240068B0FBF1F000F013
:1006600009FD08B1012404E000222946501E00F0D3
:1006700011F8204670BD000000000020704700F017
:100680001F02012191404009800000F1E020C0F8E4
:1006900000117047F0B40E4B1B68C3F30223C3F183
:1006A0000704042C00D904241D1D072D01D20023AA
:1006B00000E0DB1E012606FA04F56D1E0D409D408C
:1006C0009E40761E164045EA0601F0BC01F04EB889
:1006D0000CED00E0064A00F0070110684FF6FF033A
:1006E000184040EA012003490843106070470000A9
:1006F0000CED00E00000FA051649B0F5007F08682F
:10070000C0F3412009D0022805D0086820F4C06059
:1007100040F480600860002070470128FBD0086822
:1007200020F4C06040F4007008600B48322200687A
:1007300050430A4AB0FBF2F0401C00E0401E4A69F8
:10074000520501D50028F9D148694005E3D50320B9
:1007500070470000007000400000002040420F0081
:100760000248006800F4C06070470000007000405C
:100770002DE9F0470D4604005ED0DFF80881D8F877
:10078000000000F00700A8420CD2D8F8001021F0B9
:1007900007012943C8F80010D8F8000000F007004E
:1007A000A84249D12078384EC0072BD06068032872
:1007B00011D0022812D0316898B1490500293BDADE
:1007C000B16821F003010143B160FFF721FF074643
:1007D00041F288390FE031688901EFE73168890318
:1007E000ECE78907EAE7FFF713FFC11B494502D988
:1007F0000320BDE8F087B068616800F00C00B0EB42
:10080000810FF0D12078800705D5B068A16820F06D
:10081000F0000843B060D8F80010404601F007012E
:10082000A9420BD9016821F0070129430160006842
:1008300000F00700A84201D00120DAE72078400745
:1008400005D5B068E16820F4E0600843B060207826
:10085000000706D5B068216920F4605040EAC10065
:10086000B06000F03BF8B168084AC1F30311515C75
:1008700001F01F01C84006490860BDE8F0470020AC
:10088000FFF7E4BE0020024000100240782000087C
:10089000000000200548064900688968054AC1F340
:1008A0000221515C01F01F01C84070470000002088
:1008B00000100240B8200008054806490068896811
:1008C000054AC1F3C221515C01F01F01C8407047C5
:1008D0000000002000100240B820000870B5264B30
:1008E000002210469968DC6811F00C0104F0030640
:1008F000224C4FEA640508D00C2904D0042925D0E5
:10090000082925D010E0012E10D11A68120704D44E
:10091000D3F89420C2F3032202E01A68C2F3031250
:10092000174E56F8222079B10C290ED1D86800F064
:100930000301D868C0F30210401C02290AD0032921
:100940000BD0B2FBF0F00AE0104670BD204670BD3F
:10095000284670BDB4FBF0F001E0B5FBF0F0D968BB
:10096000C1F306214843D968C1F34161491C4900DC
:10097000B0FBF1F070BD0000001002400024F40054
:10098000882000082DE9F84304007CD0FA4DA868BF
:1009900000F00C06E86800F003072078C00662D576
:1009A00076B10C2E01D1012F0AD0A0690028286849
:1009B00078D040F001002860FFF72AFE804659E019
:1009C0002868800702D5A0690028DED0216A28683F
:1009D000000703D5286800F0F00004E0D5F8940083
:1009E000F02202EA1010814216D9084600F0D0FE2B
:1009F000002848D1286840F0080028602868216A4B
:100A000020F0F000084328606868E16920F47F4026
:100A100040EA0120686015E0286840F0080028607E
:100A20002868216A20F0F000084328606868E169BE
:100A300020F47F4040EA01206860206A00F0A8FEB0
:100A40000028D6D1FFF74AFFA968CC4AC1F30311A9
:100A5000515C01F01F01C840C94908600020FFF740
:100A6000F5FD00287ED12DE0FFF7D2FDA0EB0800B8
:100A7000022878D828688007F6D5286840F0080052
:100A80002860286801E0B8E00CE0216A20F0F0005E
:100A9000084328606868E16920F47F4040EA01204B
:100AA00068600FE020F001002860FFF7B1FD80468C
:100AB00005E0FFF7ADFDA0EB08000228D9D82868B3
:100AC0008007F6D42078C00740D0082E18D00C2E0E
:100AD00001D1032F14D06068B0F5803F17D0B0F576
:100AE000A02F286817D020F480302860286820F4D0
:100AF000802028606068E0B1FFF78AFD804614E03E
:100B00002868800322D56068002876D01EE0286817
:100B100040F48030EDE740F480202860F7E7FFF7ED
:100B200077FDA0EB08006428A3D828688003F6D5D9
:100B30000CE0FFF76DFD804605E0FFF769FDA0EBD7
:100B40000800642895D828688003F6D420788007A8
:100B500039D5042E11D00C2E01D1022F0DD0E06812
:100B6000002801E02DE19BE028681DD040F4807052
:100B70002860FFF74DFD07460BE0286840050BD5C0
:100B8000E0680028C1D007E0FFF742FDC01B022843
:100B900094D828684005F7D56868217C20F0F85083
:100BA00040EA016068600EE020F480702860FFF782
:100BB0002FFD074604E0FFF72BFDC01B02286FD86E
:100BC00028684005F7D42078000728D560690028F8
:100BD000D5F8940012D040F00100C5F89400FFF75A
:100BE00017FD074604E0FFF713FDC01B022857D886
:100BF000D5F894008007F6D511E0E9E020F0010077
:100C0000C5F89400FFF704FD074604E0FFF700FD78
:100C1000C01B022844D8D5F894008007F6D4207869
:100C2000400766D5A86D4FF00008C00009D4A86D34
:100C300040F08050A865A86D4FF0010800F080508A
:100C4000009050480168C90511D40168814641F4FB
:100C500080710160FFF7DCFC074604E0FFF7D8FC79
:100C6000C01B02281CD8D9F80000C005F6D5A06822
:100C7000012816D00528D5F8900017D020F00100E3
:100C8000C5F89000D5F8900020F00400C5F8900059
:100C9000A06841F28839C0B1FFF7BAFC07460FE0FF
:100CA00069E0D5F8900040F00100EFE740F0040063
:100CB000C5F89000F5E7FFF7ABFCC11B49457FD8AD
:100CC000D5F890008007F6D50CE0FFF7A1FC0746A9
:100CD00004E0FFF79DFCC11B494571D8D5F8900091
:100CE0008007F6D4B8F1000F03D0A86D20F0805033
:100CF000A865A06AF0B30C2E6AD00228286820F0FC
:100D00008070286004D0286810F0205F47D04AE047
:100D1000FFF77EFC064604E0FFF77AFC801B022802
:100D20004ED828688001F7D4206BE16A00011038A2
:100D30000843616BA26B0902120941EA4241084370
:100D4000A18F114A490802EB4151084394F8401021
:100D50004908120102EB41610843E860286840F04D
:100D600080702860E86840F08070E860FFF750FC11
:100D7000044610E02AE023E000100240782000083A
:100D800000000020007000400000E0FFFFF740FC82
:100D9000001B022814D828688001F7D516E0E868FF
:100DA00020F00300E860E8680A490840E860FFF7BF
:100DB0002FFC044607E0FFF72BFC001B022802D99A
:100DC0000320BDE8F88328688001F4D40020F8E708
:100DD0000120F6E7FFFFEEFE2DE9F041040005D00B
:100DE0000025A56294F85D0018B107E00120BDE878
:100DF000F08184F85C50204600F044F8022684F824
:100E00005D602068016821F040010160E0684FF4F6
:100E1000E062904201D9002101E04FF48051B0F529
:100E2000706F02D0904200D0A562276B012327B9D2
:100E3000904201D9266300E02363D4E90102104304
:100E4000D4E9042632431043228B02F4007210438B
:100E5000E2691043226A1043A26A104322681060BC
:100E6000626B606AA66910430427E26807EA1646C7
:100E700032431043084321684860256684F85D309A
:100E80000020B4E7114800B5C16C87B041F0020101
:100E9000C164C16C01F002010591816D41F4004112
:100EA0008165806D694600F400400590282000901F
:100EB000022001900120029003200390062004905C
:100EC0000348FFF7B3FA07B000BD0000001002406E
:100ED000000400482DE9F84F044690F85C00002615
:100EE0001D469046894601280ED04FF0010B84F82C
:100EF0005CB0FFF78DFB074694F85D004146B246B3
:100F0000012804D00226A0E0022000F0A4B8B9F124
:100F1000000F71D0B8F1000F6ED0032084F85D008F
:100F2000C4F860A0C4F83890A4F83C80A4F83E80CF
:100F3000C4F840A0A4F844A0A4F846A0C4F850A067
:100F4000C4F84CA0A068B0F5004F04D12068026836
:100F500042F48042026020680268520603D40268AC
:100F600042F040020260E068B0F5E06F606822D9AC
:100F700008B101291BD1A06B21680088C86006E078
:100F800020688168890709D5A16B0988C160A06BB9
:100F9000801CA063E08F401EE08708E0FFF738FB6D
:100FA000C01BA84202D3681C01D045E0A5B3E08F66
:100FB0000028E5D135E008B101292FD1E08F0128C3
:100FC000A06B03D921680088C8600FE02168007811
:100FD000087314E0E08721E020688168890714D550
:100FE000E18F0129A16B08D90988C160A06B801C21
:100FF000A063E08F801EEDE726E009780173A06B07
:10100000401CA063E08F401EE4E7FFF701FBC01B1C
:10101000A84202D3681C01D00EE06DB1E08F002819
:10102000DAD13A462946204600F020FC08B12020BB
:101030002066A06810B105E0032606E02068C168BC
:1010400080680090206E00B1012684F85DB084F8BD
:101050005CA0304659E718BCBDE8E08F4FF0E021B6
:101060000428086903D020F004000861704740F0AC
:101070000400FAE710B5401EB0F1807F01D30120D3
:1010800010BD4FF0E02460610F21601700F06EFB8F
:101090000020A06107202061002010BD704770472C
:1010A0002DE9F04102680446D0691168936810F098
:1010B0000F0F4FF000055BD003F0010601F49077AD
:1010C000374369D0C70707D0CF0505D50127176279
:1010D000626F42F001026267820708D5DA0706D024
:1010E000276802223A62626F42F004026267420796
:1010F00008D5DA0706D0236804221A62626F42F02C
:101100000202626702070AD501F02002324306D0CC
:10111000236808221A62626F42F008026267626FF7
:10112000002A32D0800605D5880603D5216E09B184
:1011300020468847606F000703D420688068400617
:1011400025D5204600F044FD20688168490619D560
:10115000816821F040018160E06E98B1204981638F
:10116000E06EFFF73BF900280FD0E06E816B06E0E0
:10117000860611D58E060FD5216E1EE02046BDE8ED
:10118000F04108472046FFF78AFFBDE8F08120467E
:10119000FFF785FF6567F8E7C60209D55B0207D54B
:1011A0004FF4801010622046BDE8F041FFF776BF93
:1011B000030605D50B0603D5616E0029DED1E4E7F1
:1011C0004006E2D54806E0D51168204621F04001EE
:1011D0001160202184F87110656600F0E4F8D4E70E
:1011E000BD1B000810B5040003D094F8710010B1C5
:1011F00007E0012010BD002084F87000204600F0B8
:1012000027F8242084F871002068016821F001018A
:101210000160204600F0ECFC0128EBD0606A10B1C0
:10122000204600F039FC2068416821F4904141607B
:101230002068816821F02A0181602068016841F0FE
:10124000010101602046BDE8104000F089BC0000AB
:1012500010B50068164986B0884227D11548C16C80
:1012600041F00101C164C16C01F001010591016E01
:1012700041F480410166006E012100F48040059038
:101280004FF4007000900220CDE901010390072087
:101290004FF09044049069462046FFF7C7F84FF49A
:1012A0008061009169462046FFF7C0F806B010BD86
:1012B00000380140001002402DE9F84F044690F834
:1012C0007200984616460D46202867D1FDB1F6B14A
:1012D00094F87000012861D0012084F870004FF06C
:1012E0000009C4F87490222084F872005434FFF787
:1012F0008FF9A6808246E68054F84C0C4FF4805754
:10130000FF21543CB84208D1206918B10DE00120FA
:1013100000F046B840F2FF100DE07F2218B1B0F1A6
:10132000805F05D009E0206950B9A4F85C1004E0A2
:10133000206928B13F20A4F85C00B4F85C601CE090
:10134000A4F85C20F9E75346002220212046CDF87E
:10135000008000F0ABFD08B10320D9E7A068B842D7
:1013600001D12069A0B12068808C304005F8010BC4
:10137000B4F85A00401EA4F85A00B4F85A000028E5
:10138000E1D1202084F8720084F870900020BFE73B
:101390002068808C304025F8020BE9E70220B7E78F
:1013A00018BCBDE8E08F7047FEE72DE9F041074625
:1013B0001C4615460E462A2000F096F9380A00F021
:1013C000A1F9F8B200F09EF9280A00F09BF9E8B202
:1013D00000F098F92B2000F087F9300A00F092F91C
:1013E000F0B200F08FF9200A00F08CF9E0B200F0C2
:1013F00089F9BDE8F0412C2000F076B970B5050AF6
:10140000C4B2EF2300211A460846FFF7CEFF0F496A
:1014100000204FF4107201F8105001EB4003401C03
:1014200080B25C709042F6D3012210210848FFF789
:10143000EAF800244FF490652946044800F02CF99E
:10144000641CA4B2642CF7D370BD000050010020CE
:101450000004004830B5254887B0C16C41F0020156
:10146000C164C16C01F002010591C16C41F0080139
:10147000C164C06C1E4C00F008000590D0200090A4
:101480000120019002900220039069462046FEF759
:10149000CDFF0022D0212046FFF7B5F88021154D61
:1014A000009169462846FEF7C1FF002280212846A8
:1014B000FFF7A9F8002280212846FFF7A4F80022B0
:1014C00080212046FFF79FF8002240212046FFF7A9
:1014D0009AF8782000F05EFD012240212046FFF7B7
:1014E00092F800F093F907B030BD00000010024000
:1014F00000040048000C004810B5FFF7ABFF78204F
:1015000000F048FD112000F0EFF8782000F042FDD7
:10151000362000F0E9F8002000F0F4F83A2000F05E
:10152000E3F8652000F0EEF8B22000F0DDF80C20C2
:1015300000F0E8F80C2000F0E5F8002000F0E2F8F8
:10154000332000F0DFF8332000F0DCF8B72000F0A3
:10155000CBF8722000F0D6F8BB2000F0C5F83D2093
:1015600000F0D0F8C02000F0BFF82C2000F0CAF83E
:10157000C22000F0B9F8012000F0C4F8C32000F048
:10158000B3F8192000F0BEF8C42000F0ADF8202018
:1015900000F0B8F8C62000F0A7F80F2000F0B2F86D
:1015A000D02000F0A1F8A42000F0ACF8A12000F0B9
:1015B000A9F8E02000F098F8D02000F0A3F804206B
:1015C00000F0A0F80D2000F09DF8112000F09AF82E
:1015D000132000F097F82B2000F094F83F2000F043
:1015E00091F8542000F08EF84C2000F08BF8182071
:1015F00000F088F80D2000F085F80B2000F082F84C
:101600001F2000F07FF8232000F07CF8E12000F09C
:101610006BF8D02000F076F8042000F073F80C206E
:1016200000F070F8112000F06DF8132000F06AF857
:101630002C2000F067F83F2000F064F8442000F010
:1016400061F8512000F05EF82F2000F05BF81F20B9
:1016500000F058F81F2000F055F8202000F052F854
:10166000232000F04FF8212000F03EF8292000F060
:101670003BF8EF2300211A460846FFF796FE1F208D
:10168000FFF7BCFE0122BDE8104080210148FEF7B3
:10169000BABF00000004004800F0DEB82DE9F041B8
:1016A00015464419069F1E468446F02C18D8881902
:1016B000F02815D8401E83B2641EA2B26046FFF720
:1016C00074FE012210210748FEF79DFF75434FF677
:1016D000FF7000EA45013846BDE8F041FFF7DCBF86
:1016E000BDE8F0810004004801B500221021044843
:1016F000FEF789FF01216846FFF7CEFF08BD000015
:101700000004004801B5012210210448FEF77BFFC8
:1017100001216846FFF7C0FF08BD00000004004833
:1017200030B50F4887B0C16C41F01001C164C06C86
:101730004FF4607400F0100005900120CDE90040E6
:1017400002900220074D039069462846FEF76EFE80
:10175000012221462846FEF756FF07B030BD0000A3
:101760000010024000100048FEE770470907090E0C
:10177000002806DA00F00F0000F1E02080F8141DC8
:10178000704700F1E02080F80014704770470000B7
:10179000F8B51C4E05460024B06DC00002D5FEF71A
:1017A000DFFF0DE0B06D40F08050B065B06D00F02F
:1017B00080500090FEF7D4FFB16D21F08051B165EB
:1017C000B0F5007F04D0802D07D94FF003040AE064
:1017D000802D08D9A02D01D804E001D1022402E017
:1017E000702D00D101240848016821F00701214330
:1017F0000160006800F00700A04201D00120F8BDA0
:101800000020F8BD001002400020024010B5114C2D
:101810000F484FF4E06120604FF482706060002058
:10182000C4E9020102212161012161614902C4E987
:10183000061020626062A0620720E0622046FFF787
:10184000CBFA2068016841F04001016010BD000042
:10185000003C0040D00500200A4601464FF47A7350
:101860000148FFF737BB0000D0050020F8B515464A
:101870000E460B460092044600224FF4C05100F081
:1018800019F888B93346002280212046009500F0DF
:101890005CF848B9334600224FF4C06120460095F9
:1018A00000F008F8002804D0206E40F020002066E8
:1018B0000320F8BD2DE9F0471D4616460F460446A5
:1018C0004FF4C069DDF820800CE04F4501D106B926
:1018D000007B681C06D0FEF79BFEA0EB0800A84228
:1018E00008D23DB1206881683940B142EDD1002075
:1018F000BDE8F0872068416821F0E0014160606840
:10190000B0F5827F0BD1A068B0F5004F02D0B0F5E2
:10191000806F04D12068016821F040010160A06A55
:10192000B0F5005F09D12068016821F40051016021
:101930002068016841F400510160012084F85D00D5
:10194000002084F85C000320D2E72DE9F0411D4619
:1019500017460E460446DDF8188008E0681C06D0DD
:10196000FEF756FEA0EB0800A8420BD255B1206846
:10197000806836EA000030D00020B842EED1002066
:10198000BDE8F0812068416821F0E00141606068B5
:10199000B0F5827F0BD1A068B0F5004F02D0B0F552
:1019A000806F04D12068016821F040010160A06AC5
:1019B000B0F5005F09D12068016821F40051016091
:1019C0002068016841F400510160012084F85D0045
:1019D000002084F85C000320D2E70120CDE77047A7
:1019E000FEF71CBE1A4810B5816D98B041F08051C9
:1019F0008165806D012100F0805016900804CDE9CA
:101A00000010022003240A90CDE90B4114210D910E
:101A10000721CDE90E1010906846FEF7B3FF00B124
:101A2000FEE70F20CDE911040020139014901590CB
:101A3000042111A8FEF79CFE00B1FEE74FF40070F0
:101A4000FEF75AFE002800D0FEE718B010BD0000D7
:101A5000001002400D48016841F4700101600C481B
:101A6000016841F001010160002181600268094BB9
:101A70001A4002608214C260026822F4802202606E
:101A800081610249C00380390860704788ED00E039
:101A900000100240FFFFF6EA90F82410C90706D0B4
:101AA00001684A68836A22F400321A434A6090F857
:101AB0002410890706D501684A68C36A22F4803277
:101AC0001A434A6090F82410490706D501684A680D
:101AD000036B22F480221A434A6090F8241009070D
:101AE00006D501684A68436B22F400421A434A60F3
:101AF00090F82410C90606D501688A68836B22F421
:101B000080521A438A6090F82410890606D501682D
:101B10008A68C36B22F400521A438A6090F824103A
:101B2000490611D501684A68036C22F480121A43F1
:101B30004A60016CB1F5801F06D101684A68436CA8
:101B400022F4C0021A434A6090F82410090606D510
:101B500001684A68806C22F4002202434A607047A0
:101B6000F8B5002504464567FEF752FD0746206894
:101B700000686FF07E46000708D53B4600224FF410
:101B800000112046009600F091F960B920680068C5
:101B900040070AD53B4600224FF4800120460096BC
:101BA00000F084F908B10320F8BD202084F871000A
:101BB00084F8720084F870500020F8BD10B5806A77
:101BC0000021A0F85A10A0F85210FFF768FA10BDD3
:101BD00001680A6822F490720A6001688A6822F03B
:101BE00001028A60202180F872100021016670478E
:101BF0002DE9F047044600682369A168D4F81CC0A9
:101C0000194363691025002643EA0C0319439B4AD4
:101C100003683746DFF868C203EA0C030B4303602E
:101C200020684168E36821F440511943416021680C
:101C3000A069914201D0236A18438B6823F4306372
:101C400003438B608F4B21688F4899420DD1D0F8A8
:101C5000880010F0030006D001285AD0022856D080
:101C6000032859D157E0012556E0884B99420BD102
:101C7000D0F8880010F00C0047D0042849D008287C
:101C800045D00C2848D146E0814B99420BD1D0F881
:101C9000880010F0300038D010283AD0202836D0F4
:101CA000302839D137E07B4B99420BD1D0F88800EE
:101CB00010F0C00029D040282BD0802827D0C02881
:101CC0002AD128E0744B99420ED1D0F8880010F444
:101CD00040701AD0B0F5807F1BD0B0F5007F16D0D1
:101CE000B0F5407F18D116E0914215D1D0F88800A8
:101CF00010F4406009D0B0F5806F0AD0B0F5006FE5
:101D000005D0B0F5406F07D105E0002504E00225BD
:101D100002E0042500E00825604B4FF000084FF476
:101D20000040914244D135B1022D07D0042D07D097
:101D3000082D10D107E0FEF7ADFD03E0184602E0E4
:101D4000FEF7CCFD98B3626802EB4201814202D8F3
:101D5000B0EB023F01D9012789E065B1022D0DD01A
:101D6000042D13D0082D1BD001274D49A6F5407036
:101D700088427AD9EFE7FEF78DFD09E05008494B1C
:101D800011E00023FEF771FA0646EEE7FEF7A6FD26
:101D90006268010E05025008281841EB0801F0E7BF
:101DA00050084FF40003C01848F10001E9E75EE075
:101DB000E1694FF6EF7981422ED1092D1DD2DFE87E
:101DC00005F00508121C151C1C1C1800FEF762FD0E
:101DD00001E0FEF771FD4100606801EB5001B1FBCD
:101DE000F0F086B20AE030496068F6E7FEF776FD6B
:101DF000F1E74FF480316068EFE70127A6F11000AA
:101E00004845A8D84FF6F07106EA0100C6F3420132
:101E100008432168C8602AE0092D21D2DFE805F0D7
:101E200005081220162020201A00FEF733FD01E0DD
:101E3000FEF742FD0146606801EB5001B1FBF0F096
:101E400086B20EE0606803EB5001F7E7FEF746FD4F
:101E5000F0E70AE0616800EB5100B0FBF1F0EFE75A
:101E60000127A6F11000484584D82068C660C4F850
:101E700060803846C4F86480BDE8F0870080004088
:101E8000F369FFEF003801400010024000440040B9
:101E900000480040004C0040005000400024F40086
:101EA000FFFC0F00000024F40048E8012DE9F04198
:101EB0001E46174688460446069D1CE0681C1AD03C
:101EC00025B1FEF7A5FB801BA84214D92068016844
:101ED00021F4D07101602068816821F001018160E6
:101EE000202084F8710084F87200002084F87000CB
:101EF0000320BDE8F0812068C16938EA010004D000
:101F00000020B842DAD00020F3E70120F9E7000012
:101F100038B518480068C069C043800622D44FF421
:101F20007A73012269461348FFF7C6F9124A1088EE
:101F3000010417D441049DF800104FF0000304D5AC
:101F40000A290ED140F4004012E00D290ED0C0F352
:101F50000D04084D401CC83D80B229551080C7288B
:101F600000D913800348FFF79BF838BD40F4804048
:101F70001080F7E7D80000200C000020FEE7704733
:101F800010B504460420FFF769F80148046010BD4D
:101F90000800002070B5054600244FF47A7603E06F
:101FA000304600F005F8641CAC42F9D370BD000067
:101FB00070B54FF0E02500216C69094AAB691268E1
:101FC0005043AA699A42FCD002D2A3EB020302E07A
:101FD000A4EB02063344194413468142F1D370BD89
:101FE00008000020FEF722FBFFF7FCFC5020FFF763
:101FF000C7FF4FF4E13000F017F8FFF791FBFFF750
:102000007BFA084D4FF400744FF47A7600210846AD
:10201000FEF7DAF921462846FEF7F1FA3046FFF7D7
:10202000B9FFF3E70010004810B50F4C0D49C4E9A3
:1020300000100020A060E0602061A0610C206061C1
:102040002046FFF7CFF82068016841F020010160C9
:102050002520FEF714FB0322BDE810401146252081
:10206000FEF718BB00380140D80000204FF0407048
:10207000E1EE100A704700000000000000000000C0
:102080000102030406070809A0860100400D0300B1
:10209000801A060000350C0040420F0080841E00AC
:1020A00000093D0000127A000024F40000366E01A1
:1020B0000048E801006CDC0200000000010203049B
:1020C00000000000000000000000000000002020D0
:1020D00020202000002000002828500000000000E0
:1020E0000000000000005050F85050F85050000020
:1020F000002070A8A0603028A8702000000048A828
:10210000B0A874345448000000002050506CA8A8B7
:1021100094680000404080000000000000000000C3
:10212000081010202020202010100800402020102F
:10213000101010102020400000000020A87070A88F
:102140002000000000000010107C101000000000B3
:10215000000000000000000040408000000000007F
:1021600000FC000000000000000000000000000073
:1021700000400000000408081010202040408000AB
:1021800000007088888888888870000000002060BF
:10219000202020202070000000007088881020403F
:1021A00080F800000000708808300808887000007F
:1021B00000001030305090F8103800000000F88017
:1021C00080F08808887000000000304880B0C8881F
:1021D00088700000000078081010202020200000E7
:1021E00000007088887088888870000000007088FF
:1021F000889868089060000000000000200000003F
:10220000002000000000000000200000002020004E
:1022100000000810204040201008000000000000CE
:10222000FC00FC0000000000000040201008081026
:10223000204000000000708888102020002000004E
:102240000000384494B4B4B84438000000002020A2
:102250003050507848CC00000000F04848704848A2
:1022600048F000000000788880808080887000003E
:102270000000F0484848484848F000000000F8488E
:102280005070504048F800000000F848507050402E
:1022900040E000000000384880809C884830000002
:1022A0000000CC484878484848CC00000000F8209E
:1022B0002020202020F8000000007C1010101010BA
:1022C000101090E00000EC485060504848EC0000CE
:1022D0000000E0404040404044FC00000000DCD8EA
:1022E000D8D8A8A8A8AC00000000DC4868685858F6
:1022F00048E800000000708888888888887000009E
:102300000000F0484870404040E000000000708845
:10231000888888E8987018000000F0484870504895
:1023200048EC0000000078888060100888F0000009
:102330000000F8A820202020207000000000CC48D9
:1023400048484848483000000000CC4848505030C9
:10235000202000000000A8A8A8A87050505000003D
:102360000000D8505020205050D800000000D85015
:1023700050502020207000000000F89010202040D5
:1023800048F800003820202020202020202038007D
:10239000004040202020101010080800701010107D
:1023A00010101010101070002050000000000000ED
:1023B000000000000000000000000000000000FC21
:1023C00040200000000000000000000000000000AD
:1023D00000304838483C000000C040404070484849
:1023E00048700000000000000038484048300000FD
:1023F0000018080808384848483C00000000000061
:102400000030487840380000001824202078202030
:102410002078000000000000003C4830403844387C
:1024200000C040404070484848EC000000202000B8
:1024300000602020207000000010100000301010FC
:10244000101010E000C040404058506050C80000DC
:1024500000E020202020202020F8000000000000C4
:1024600000F0A8A8A8A800000000000000F048485C
:1024700048EC0000000000000030484848300000F0
:102480000000000000F04848487040E000000000F4
:10249000003848484838081C0000000000D8604058
:1024A00040E00000000000000078403008780000A4
:1024B00000000020207820202038000000000000CC
:1024C00000D84848483C00000000000000D85050A8
:1024D000202000000000000000A8A870505000005C
:1024E0000000000000D8502050D80000000000007C
:1024F00000CC4848301020C00000000000781020B8
:102500002078000018101010103010101010180053
:10251000101010101010101010101010602020203B
:1025200020102020202060006890000000000000A3
:10253000000000000000000000000000000000009B
:10254000000000000000001010101010101000001B
:1025500010100000001224244800000000000000B9
:10256000000000000000001212127E2424247E24A9
:10257000242400000000083C4A4A48380C0A0A4A51
:102580004A3C080800000044A4A8A8B0541A2A2A0B
:102590004A44000000000030484848506EA4949817
:1025A000897600000060202040000000000000004C
:1025B000000000000002040808101010101010089D
:1025C000080402000040201010080808080808103D
:1025D00010204000000000001010D63838D610102F
:1025E0000000000000000000000808087F0808083C
:1025F00000000000000000000000000000000000DB
:102600006020204000000000000000007E0000006C
:1026100000000000000000000000000000000000BA
:10262000606000000000020404040808101010207C
:1026300020404000000000182442424242424242F0
:1026400024180000000000083808080808080808D6
:10265000083E00000000003C4242420204081020F4
:10266000427E00000000003C424202041804024284
:10267000423C0000000000040C0C142424447F049D
:10268000041F00000000007E4040407844020242E7
:1026900044380000000000182440405C624242427E
:1026A000221C00000000007E4204040808101010E4
:1026B000101000000000003C424242241824424214
:1026C000423C00000000003844424242463A0202C6
:1026D000241800000000000000001818000000008E
:1026E00018180000000000000000001000000000AA
:1026F00000101010000000020408102040201008F4
:10270000040200000000000000007E00007E0000C7
:10271000000000000000004020100804020408101F
:10272000204000000000003C42426204080808000B
:102730001818000000000038445AAAAAAAAAAA5CE5
:10274000423C00000000001010182828243C44429D
:1027500042E70000000000F844444478444242420A
:1027600044F800000000003E4242808080808042A9
:1027700044380000000000F84442424242424242D3
:1027800044F80000000000FC4248487848484042B5
:1027900042FC0000000000FC4248487848484040A5
:1027A00040E000000000003C44448080808E84446F
:1027B00044380000000000E7424242427E4242426A
:1027C00042E700000000007C1010101010101010E4
:1027D000107C00000000003E0808080808080808EF
:1027E000080888F0000000EE444850705048484403
:1027F00044EE0000000000E04040404040404040C7
:1028000042FE0000000000EE6C6C6C6C6C54545482
:1028100054D60000000000C7626252524A4A4A463B
:1028200046E2000000000038448282828282828276
:1028300044380000000000FC424242427C404040DC
:1028400040E000000000003844828282828282B22E
:102850004C380600000000FC4242427C4848444498
:1028600042E300000000003E4242402018040242C1
:10287000427C0000000000FE92101010101010109A
:1028800010380000000000E7424242424242424209
:10289000423C0000000000E742424424242828185B
:1028A00010100000000000D654545454546C2828D2
:1028B00028280000000000E74224241818182424C7
:1028C00042E70000000000EE4444282810101010D9
:1028D000103800000000007E840408081020204208
:1028E00042FC0000001E10101010101010101010EC
:1028F00010101E00000040202020101010080804B6
:1029000004040202007808080808080808080808F3
:1029100008087800001824000000000000000000F3
:1029200000000000000000000000000000000000A7
:10293000000000FF00601000000000000000000028
:10294000000000000000000000000038440C344487
:102950004C36000000000000C04040586442424233
:1029600064580000000000000000001C22404040AD
:10297000221C0000000000000602023E42424242C9
:10298000463B0000000000000000003C42427E4048
:10299000423C0000000000000C12107C10101010CF
:1029A000107C0000000000000000003E444438405D
:1029B0003C42423C00000000C040405C6242424257
:1029C00042E70000000000303000007010101010CE
:1029D000107C00000000000C0C00001C0404040427
:1029E0000404447800000000C040404E4850704845
:1029F00044EE0000000000107010101010101010B5
:102A0000107C000000000000000000FE4949494918
:102A100049ED000000000000000000DC624242427C
:102A200042E70000000000000000003C4242424239
:102A3000423C000000000000000000D86442424216
:102A4000645840E0000000000000001A26424242A4
:102A5000261A020700000000000000EE32202020AD
:102A600020F80000000000000000003E42403C0250
:102A7000427C0000000000000010107C10101010BC
:102A8000120C000000000000000000C6424242425A
:102A9000463B000000000000000000EE44442828EF
:102AA0001010000000000000000000DB894A5A54AA
:102AB00024240000000000000000007624181818EC
:102AC000246E000000000000000000E742242418EB
:102AD00018101060000000000000007E4408101074
:102AE000227E000000030404040404040804040417
:102AF000040403000808080808080808080808086B
:102B00000808080800C020202020202010202020B5
:102B10002020C000205A0400000000000000000037
:102B200000000000000000000000000000000000A5
:102B30000000000000000000000000000000000095
:102B40000000000000000000000000000000000085
:102B50000000000000000000000000000600060069
:102B6000060006000600060006000200040004003D
:102B7000040000000000000006000600060000003F
:102B80000000000000000000066006600CC0198014
:102B90001100220000000000000000000000000002
:102BA0000000000000000000000000000000000025
:102BB0000000000000000000000000000840084085
:102BC000084008407FE07FE01040108010801080B7
:102BD00010807FE07FE02080208020802080000027
:102BE00000000000000000000000020002000F8052
:102BF0001AC032C033C032001A000E000700038032
:102C0000038002C032C03AC032C012800F000200FE
:102C100002000000000000000000000070805080F2
:102C20008900890089008A008A005C0075C005401F
:102C30000A200A20122012201220214021C0000068
:102C40000000000000000000000000001C00360032
:102C50003600360036003600340019E038805880DF
:102C6000CC80CC80C680C700C31063903CE00000DD
:102C700000000000000000003000380008000800DC
:102C80001000200000000000000000000000000014
:102C90000000000000000000000000000000000034
:102CA0000000000000000000002000400080010043
:102CB00001000200020004000400040004000400FB
:102CC0000400040002000200010001000080004036
:102CD000002000000000000040002000100008005C
:102CE00008000400040002000200020002000200CA
:102CF0000200020004000400080008001000200088
:102D00004000000000000000000000000000000083
:102D1000020003000200623072F00B800F807AF034
:102D2000623002000200020000000000000000000B
:102D30000000000000000000000000000000000093
:102D40000000020002000200020002007FF0020008
:102D5000020002000200020000000000000000006B
:102D60000000000000000000000000000000000063
:102D70000000000000000000000000000000000053
:102D800000000000000000003000380008000800CB
:102D90001000200000000000000000000000000003
:102DA0000000000000000000000000007FE00000C4
:102DB0000000000000000000000000000000000013
:102DC0000000000000000000000000000000000003
:102DD00000000000000000000000000000000000F3
:102DE000000000000000000038003800380000003B
:102DF000000000000000000000200060004000C053
:102E000000800080010001000200020006000400B2
:102E100004000800080010001000300020006000CE
:102E200040000000000000000000000000000F0053
:102E3000198030C030C06060606060606060606059
:102E400060606060606030C030C019800F000000BA
:102E50000000000000000000000000000000020070
:102E60003E000600060006000600060006000600FA
:102E70000600060006000600060006003FC000002F
:102E800000000000000000000000000000001F0023
:102E9000218040C060C060C000C00080018003008D
:102EA0000600040008001040204060407FC0000081
:102EB00000000000000000000000000000001E00F4
:102EC0006300618061800180018003000E00018049
:102ED000008000C000C060C060C061801F000000B2
:102EE0000000000000000000000000000000018061
:102EF0000180038005800580098011801180218078
:102F000041807FF0018001800180018007E00000A6
:102F100000000000000000000000000000003FC0B2
:102F2000200020002000200020002F00318020C041
:102F300000C000C060C060C0418021801F00000050
:102F400000000000000000000000000000000780FA
:102F500018C030C0300020006000678068C070601A
:102F60006060606060602060304018C00F0000004A
:102F700000000000000000000000000000001FE052
:102F800030602040208000800080010001000200AD
:102F9000020002000600060006000600060000000F
:102FA00000000000000000000000000000001F8082
:102FB00030C0606060606060304038C00F001380D7
:102FC00030C0606060606060606030C00F80000092
:102FD00000000000000000000000000000000F00E2
:102FE000308030C0604060606060606060E0316090
:102FF0001E60006000C000C0308031801E000000F4
:1030000000000000000000000000000000000000C0
:10301000000000000000000007000700070000009B
:10302000000000000000000007000700070000008B
:103030000000000000000000000000000000000090
:103040000000000000000000060006000000000074
:103050000000000000000000000006000600020062
:1030600004000400000000000000000000200040F8
:103070000080010002000400080010002000100081
:103080000800040002000100008000400020000051
:103090000000000000000000000000000000000030
:1030A00000000000000000007FE0000000000000C1
:1030B0007FE00000000000000000000000000000B1
:1030C00000000000000000000000000020001000D0
:1030D00008000400020001000080004000200040C1
:1030E0000080010002000400080010002000000021
:1030F000000000000000000000000000000007C009
:103100001860203020303030303000E00180020084
:103110000200020000000000070007000700000096
:10312000000000000000000000000000070018C0C0
:10313000304033A026A066A065A06D206D206D20D4
:103140006D206D4027803020304018C00F000000F7
:103150000000000000000000000000000000060069
:1031600006000A000B000900090011001180108000
:103170001F8020C020C0204040404060F0F0000090
:1031800000000000000000000000000000007F00C0
:1031900031C030C030C030C030C031803F0030C09E
:1031A0003040306030603060306030C07F80000080
:1031B000000000000000000000000000000007C048
:1031C00018C0306030202020600060006000600087
:1031D0006000600060203020304018C00F00000008
:1031E0000000000000000000000000000000FE00E1
:1031F000318030C030C0306030603060306030606E
:1032000030603060306030C030C03180FE0000007F
:103210000000000000000000000000000000FFC0EF
:1032200060C0602060206000610061007F0061007C
:10323000610061006000602060206040FFC000000D
:103240000000000000000000000000000000FFC0BF
:1032500060C0602060206000610061007F0061004C
:10326000610061006000600060006000F800000024
:1032700000000000000000000000000000000F003F
:1032800018803040304020406000600060006000E6
:1032900063F060C060C030C030C018C00F000000D4
:1032A0000000000000000000000000000000F0F03E
:1032B0006060606060606060606060607FE060606F
:1032C000606060606060606060606060F0F000009E
:1032D00000000000000000000000000000003FC0EF
:1032E00006000600060006000600060006000600AE
:1032F0000600060006000600060006003FC00000AB
:1033000000000000000000000000000000001FE0BE
:103310000300030003000300030003000300030095
:103320000300030003000300030003000300630025
:1033300066003C0000000000000000000000F3C038
:10334000618063006200640068006C0074007600B5
:103350006200630061006180608060C0F1E0000095
:103360000000000000000000000000000000F80065
:10337000600060006000600060006000600060004D
:10338000600060006000602060206040FFC00000BE
:103390000000000000000000000000000000E0E06D
:1033A00061C061C071C071C072C072C052C05AC0E9
:1033B0005AC05CC04CC04CC04CC048C0E1E00000EA
:1033C000000000000000000000000000000071F09C
:1033D0003040384038402C402C4026402640224087
:1033E0002340214021C021C020C020C0F84000005F
:1033F00000000000000000000000000000000F00BE
:10340000198030C030406060606060606060606003
:10341000606060606060304030C019800F00000064
:103420000000000000000000000000000000FF009D
:1034300060C06060606060606060606061C07F000C
:10344000600060006000600060006000F800000044
:1034500000000000000000000000000000000F005D
:10346000198030C0304060606060606060606060A3
:10347000606060606E60324033C019800F0001E010
:1034800000C0000000000000000000000000FF80FD
:1034900060C0606060606060606060C07F0062000B
:1034A00063006100618060C060C06060F070000017
:1034B00000000000000000000000000000001F40AD
:1034C00030C060406040600070003C001F0007C0DA
:1034D00001C000E040604060606030C00F800000CC
:1034E00000000000000000000000000000007FE07D
:1034F000462086108610060006000600060006001C
:103500000600060006000600060006001F800000F8
:10351000000000000000000000000000000078E053
:10352000304030403040304030403040304030401B
:103530003040304030403040304018800F000000B4
:103540000000000000000000000000000000F0E0AB
:1035500060402080208030803080110011001900F0
:1035600019000A000A000E000C000400040000000C
:103570000000000000000000000000000000EF70EC
:1035800046204220622062202640264027402740D5
:103590003940398019801980118011001100000014
:1035A000000000000000000000000000000079E0C2
:1035B00030801080188009000D000600040006000D
:1035C00006000B0009001180108020C071E000008F
:1035D0000000000000000000000000000000F0F00B
:1035E000602020403040108018801D000D000E002B
:1035F0000600060006000600060006001F80000008
:1036000000000000000000000000000000003FE09B
:10361000304060C0408001800100020002000400D0
:103620000400080018001020302020407FC0000057
:10363000000000000000000007C0040004000400B7
:10364000040004000400040004000400040004005A
:10365000040004000400040004000400040004004A
:1036600007C0000000000000000000002000200053
:103670001000100008000800080004000400020008
:1036800002000300010001000080008000400040B3
:1036900000400020000000003E0002000200020086
:1036A000020002000200020002000200020002000A
:1036B00002000200020002000200020002000200FA
:1036C0003E0000000000060009001080000000001D
:1036D00000000000000000000000000000000000EA
:1036E00000000000000000000000000000000000DA
:1036F00000000000000000000000000000000000CA
:1037000000000000000000000000000000000000B9
:1037100000000000000000000000000000000000A9
:103720000000FFF00000000018000600000000008C
:103730000000000000000000000000000000000089
:103740000000000000000000000000000000000079
:103750000000000000000000000000000000000069
:1037600000000000000000000F8030C030C000C02A
:1037700007C038C070C060C060C071D03E7000002B
:1037800000000000000000000000000010007000B9
:10379000300030003000300033803CC03860306092
:1037A0003060306030603060304038C027800000CA
:1037B0000000000000000000000000000000000009
:1037C00000000000000000000F00318031806180A7
:1037D0006000600060006040304030800F000000FA
:1037E000000000000000000000000000004003C0D6
:1037F00000C000C000C000C01EC031C030C060C0EA
:1038000060C060C060C060C020C031E01E800000A9
:1038100000000000000000000000000000000000A8
:103820000000000000000000078018C01040306059
:1038300030603FE030003000182018400780000062
:10384000000000000000000000000000000003C0B5
:1038500006600C600C000C007F800C000C000C005B
:103860000C000C000C000C000C000C003F80000051
:103870000000000000000000000000000000000048
:1038800000000000000000000FE01B60318031806C
:10389000318019801F0030003F0033C060C060C01D
:1038A00071C01F0000000000000000001000700048
:1038B0003000300030003000378038C030C030C0B9
:1038C00030C030C030C030C030C030C079E00000FF
:1038D00000000000000000000000000000000600E2
:1038E00006000000000002003E0006000600060080
:1038F0000600060006000600060006003FC00000A5
:103900000000000000000000000000000000038034
:1039100003800000000000800F8001800180018092
:10392000018001800180018001800180018001808F
:1039300033003E0000000000000000001000700096
:10394000300030003000300031C031003100320032
:1039500036003A0031003180308030C079E000001C
:1039600000000000000000000000000002003E0017
:103970000600060006000600060006000600060017
:103980000600060006000600060006003FC0000014
:103990000000000000000000000000000000000027
:1039A0000000000000000000ECE0776066606660E8
:1039B000666066606660666066606660FFF0000074
:1039C00000000000000000000000000000000000F7
:1039D0000000000000000000778038C030C030C018
:1039E00030C030C030C030C030C030C079E00000DE
:1039F00000000000000000000000000000000000C7
:103A000000000000000000000F00198030C060605E
:103A1000606060606060606030C030C00F000000B7
:103A20000000000000000000000000000000000096
:103A30000000000000000000778038C03060306077
:103A4000306030603060306030C038C03780300067
:103A500030007C00000000000000000000000000BA
:103A600000000000000000001E4031C030C060C0F7
:103A700060C060C060C060C020C031C01EC000C057
:103A800000C003E000000000000000000000000093
:103A90000000000000000000F9C01A601C6018005F
:103AA000180018001800180018001800FF00000087
:103AB0000000000000000000000000000000000006
:103AC00000000000000000000FC038C0304030404F
:103AD0001C000F0003C020C020C031C03F80000088
:103AE00000000000000000000000000000000000D6
:103AF000040004000C000C007F800C000C000C0083
:103B00000C000C000C000C000C400C400780000066
:103B100000000000000000000000000000000000A5
:103B2000000000000000104071C030C030C030C044
:103B300030C030C030C030C030C039E01E8000001E
:103B40000000000000000000000000000000000075
:103B5000000000000000000078E03040108010807D
:103B6000188009000D000D0006000600040000008A
:103B70000000000000000000000000000000000045
:103B80000000000000000000EF7046206220264088
:103B900026403740398019801980198010000000B4
:103BA0000000000000000000000000000000000015
:103BB00000000000000000003DE0188008800D00BB
:103BC0000600060007000900108010C079E0000020
:103BD00000000000000000000000000000000000E5
:103BE000000000000000000079E0108010801080CC
:103BF000090009000D00060006000600040004008C
:103C00002400380000000000000000000000000058
:103C100000000000000000003F80218023002200FF
:103C2000060004000C001840104030C03F80000027
:103C3000000000000000000000C0010001000100C1
:103C40000100010001000100010002000400020067
:103C5000010001000100010001000100010001005C
:103C600000C0000002000200020002000200020088
:103C70000200020002000200020002000200020034
:103C80000200020002000200020002000200020024
:103C900002000200000000003000080008000800D8
:103CA00008000800080008000800040002000400E2
:103CB00008000800080008000800080008000800C4
:103CC00030000000000038004420432001C0000004
:103CD00000000000000000000000000000000000E4
:103CE00000000000000000000000000000000000D4
:103CF00000000000000000000000000000000000C4
:103D000000000000000000000000000000000000B3
:103D100000000000000000000000000000000000A3
:103D20000000000000000000000000000000000093
:103D30000000000000000000000000000000000083
:103D40000000000000000000000000000000000073
:103D50000000000000000000000000000000000063
:103D60000000000000000000000000000000000053
:103D70000000000000000000000000000000000043
:103D800003C003C003C003C003C003C001C001805F
:103D9000018001800180018001800180018000009C
:103DA00000000000018003C003C00180000000008B
:103DB0000000000000000000000000000000000003
:103DC00000000000000000000000000000000000F3
:103DD00000000000000000000000000000000000E3
:103DE00000000000000000000000000000000000D3
:103DF00000000000000000000318073807380E70AC
:103E00000C6018C03180210000000000000000009C
:103E100000000000000000000000000000000000A2
:103E20000000000000000000000000000000000092
:103E30000000000000000000000000000000000082
:103E40000000000000000000000000000000000072
:103E50000000000000000000000000000000000062
:103E60000000000000000000000000000000000052
:103E70000000000000000000000000000000000042
:103E8000040804080408040804087FFE7FFE7FFE7F
:103E90000810081008100810081008107FFE7FFE98
:103EA0007FFE18301020102010201020000000008D
:103EB0000000000000000000000000000000000002
:103EC00000000000000000000000000000000000F2
:103ED00000000000000000000000000000000000E2
:103EE00000000000000000000000000000000000D2
:103EF00000000000000000000000000001000100C0
:103F000003C00D3009181918193819381D000D0093
:103F10000F00070003C001E001F001300138011873
:103F20003918391831183130196007C00100010003
:103F30000100000000000000000000000000000080
:103F40000000000000000000000000000000000071
:103F50000000000000000000000000000000000061
:103F60000000000000000000000000000000000051
:103F70000000000000000000000000000000000041
:103F800038106C104420C620C640C640C640C680CB
:103F9000C68044806D38396C024402C602C604C62D
:103FA00004C608C608C60844106C1038000000009B
:103FB0000000000000000000000000000000000001
:103FC00000000000000000000000000000000000F1
:103FD00000000000000000000000000000000000E1
:103FE00000000000000000000000000000000000D1
:103FF00000000000000000000000000000000000C1
:104000000F00190031803180318031803100330060
:104010003A001C00387C3C104C10CE10C620C72043
:10402000C320C1C0C1C260E6317C1E380000000060
:104030000000000000000000000000000000000080
:104040000000000000000000000000000000000070
:104050000000000000000000000000000000000060
:104060000000000000000000000000000000000050
:10407000000000000000000038003C003C000C0084
:104080000C0008003000600000000000000000008C
:104090000000000000000000000000000000000020
:1040A0000000000000000000000000000000000010
:1040B0000000000000000000000000000000000000
:1040C00000000000000000000000000000000000F0
:1040D00000000000000000000000000000000000E0
:1040E00000000000000000000000000000000000D0
:1040F000000000000000000000020004000800189A
:10410000003000200060004000C000C0018001803D
:10411000018001800180018001800180018000C058
:1041200000C00040006000200030001800080004BB
:10413000000200000000000000000000000000007D
:10414000000000000000000000000000000000006F
:10415000000000000000000000000000000000005F
:10416000000000000000000000000000000000004F
:1041700000000000000000004000200010001800B7
:104180000C0004000600020003000300018001800F
:104190000180018001800180018001800180030095
:1041A00003000300060004000C00180010002000AB
:1041B00040000000000000000000000000000000BF
:1041C00000000000000000000000000000000000EF
:1041D00000000000000000000000000000000000DF
:1041E00000000000000000000000000000000000CF
:1041F00000000000000000000000000000000000BF
:104200000000000000C001C001C030C6388E1C9CF8
:1042100006B001C001C006B01C9C388E318601C0BA
:1042200001C001C00000000000000000000000000C
:10423000000000000000000000000000000000007E
:10424000000000000000000000000000000000006E
:10425000000000000000000000000000000000005E
:10426000000000000000000000000000000000004E
:10427000000000000000000000000000000000003E
:1042800000000000000000800080008000800080AE
:10429000008000803FFE0080008000800080008061
:1042A000008000800000000000000000000000000E
:1042B00000000000000000000000000000000000FE
:1042C00000000000000000000000000000000000EE
:1042D00000000000000000000000000000000000DE
:1042E00000000000000000000000000000000000CE
:1042F00000000000000000000000000000000000BE
:1043000000000000000000000000000000000000AD
:10431000000000000000000000000000000000009D
:104320000000000038003C003C000C000C000800BD
:1043300030006000000000000000000000000000ED
:10434000000000000000000000000000000000006D
:10435000000000000000000000000000000000005D
:10436000000000000000000000000000000000004D
:10437000000000000000000000000000000000003D
:10438000000000000000000000000000000000002D
:10439000000000007FFE00000000000000000000A0
:1043A000000000000000000000000000000000000D
:1043B00000000000000000000000000000000000FD
:1043C00000000000000000000000000000000000ED
:1043D00000000000000000000000000000000000DD
:1043E00000000000000000000000000000000000CD
:1043F00000000000000000000000000000000000BD
:1044000000000000000000000000000000000000AC
:10441000000000000000000000000000000000009C
:104420000000000018003C003C00180000000000E4
:10443000000000000000000000000000000000007C
:10444000000000000000000000000000000000006C
:10445000000000000000000000000000000000005C
:10446000000000000000000000000000000000004C
:104470000000000000000000000000020006000430
:10448000000C000800180010003000200060004000
:1044900000C000800180010003000200060004004B
:1044A0000C000800180010003000200060004000E0
:1044B00000000000000000000000000000000000FC
:1044C00000000000000000000000000000000000EC
:1044D00000000000000000000000000000000000DC
:1044E00000000000000000000000000000000000CC
:1044F00000000000000000000000000000000000BC
:1045000003C006200C30181818181808300C300C8E
:10451000300C300C300C300C300C300C300C300CBB
:104520001808181818180C30062003C000000000E6
:10453000000000000000000000000000000000007B
:10454000000000000000000000000000000000006B
:10455000000000000000000000000000000000005B
:10456000000000000000000000000000000000004B
:10457000000000000000000000000000000000003B
:10458000008001801F800180018001800180018006
:104590000180018001800180018001800180018013
:1045A000018001800180018003C01FF8000000002D
:1045B00000000000000000000000000000000000FB
:1045C00000000000000000000000000000000000EB
:1045D00000000000000000000000000000000000DB
:1045E00000000000000000000000000000000000CB
:1045F00000000000000000000000000000000000BB
:1046000007E008381018200C200C300C300C000C7F
:10461000001800180030006000C001800300020094
:10462000040408041004200C3FF83FF800000000C8
:10463000000000000000000000000000000000007A
:10464000000000000000000000000000000000006A
:10465000000000000000000000000000000000005A
:10466000000000000000000000000000000000004A
:10467000000000000000000000000000000000003A
:1046800007C0186030303018301830180018001883
:104690000030006003C0007000180008000C000C1F
:1046A000300C300C30083018183007C00000000003
:1046B00000000000000000000000000000000000FA
:1046C00000000000000000000000000000000000EA
:1046D00000000000000000000000000000000000DA
:1046E00000000000000000000000000000000000CA
:1046F00000000000000000000000000000000000BA
:104700000060006000E000E00160016002600460A1
:1047100004600860086010603060206040607FFCCA
:104720000060006000600060006003FC00000000AA
:104730000000000000000000000000000000000079
:104740000000000000000000000000000000000069
:104750000000000000000000000000000000000059
:104760000000000000000000000000000000000049
:104770000000000000000000000000000000000039
:104780000FFC0FFC100010001000100010001000B3
:1047900013E0143018181008000C000C000C000C6A
:1047A000300C300C20182018183007C00000000012
:1047B00000000000000000000000000000000000F9
:1047C00000000000000000000000000000000000E9
:1047D00000000000000000000000000000000000D9
:1047E00000000000000000000000000000000000C9
:1047F00000000000000000000000000000000000B9
:1048000001E006180C1808181800100010003000FD
:1048100033E0363038183808300C300C300C300C9F
:10482000300C180C18080C180E3003E000000000C3
:104830000000000000000000000000000000000078
:104840000000000000000000000000000000000068
:104850000000000000000000000000000000000058
:104860000000000000000000000000000000000048
:104870000000000000000000000000000000000038
:104880001FFC1FFC100830102010202000200040CA
:104890000040004000800080010001000100010094
:1048A00003000300030003000300030000000000F6
:1048B00000000000000000000000000000000000F8
:1048C00000000000000000000000000000000000E8
:1048D00000000000000000000000000000000000D8
:1048E00000000000000000000000000000000000C8
:1048F00000000000000000000000000000000000B8
:1049000007E00C301818300C300C300C380C38081C
:104910001E180F2007C018F030783038601C600C6B
:10492000600C600C600C3018183007C000000000EC
:104930000000000000000000000000000000000077
:104940000000000000000000000000000000000067
:104950000000000000000000000000000000000057
:104960000000000000000000000000000000000047
:104970000000000000000000000000000000000037
:1049800007C01820301030186008600C600C600CF4
:10499000600C600C701C302C186C0F8C000C001814
:1049A000001800103030306030C00F800000000070
:1049B00000000000000000000000000000000000F7
:1049C00000000000000000000000000000000000E7
:1049D00000000000000000000000000000000000D7
:1049E00000000000000000000000000000000000C7
:1049F00000000000000000000000000000000000B7
:104A00000000000000000000000000000000018025
:104A100003C003C00180000000000000000000008F
:104A200000000000018003C003C0018000000000FE
:104A30000000000000000000000000000000000076
:104A40000000000000000000000000000000000066
:104A50000000000000000000000000000000000056
:104A60000000000000000000000000000000000046
:104A70000000000000000000000000000000000036
:104A80000000000000000000000000000000000026
:104A9000038003800380000000000000000000008D
:104AA00000000000000003800380038001800300F9
:104AB00003000000000000000000000000000000F3
:104AC00000000000000000000000000000000000E6
:104AD00000000000000000000000000000000000D6
:104AE00000000000000000000000000000000000C6
:104AF00000000000000000000000000000000000B6
:104B000000040008001000200040008001000200A6
:104B1000040008001000100008000400020001005A
:104B20000080004000200010000800040000000089
:104B30000000000000000000000000000000000075
:104B40000000000000000000000000000000000065
:104B50000000000000000000000000000000000055
:104B60000000000000000000000000000000000045
:104B70000000000000000000000000000000000035
:104B800000000000000000000000000000007FFEA8
:104B9000000000000000000000007FFE0000000098
:104BA0000000000000000000000000000000000005
:104BB00000000000000000000000000000000000F5
:104BC00000000000000000000000000000000000E5
:104BD00000000000000000000000000000000000D5
:104BE00000000000000000000000000000000000C5
:104BF00000000000000000000000000000000000B5
:104C000020001000080004000200010000800040A5
:104C10000020001000080008001000200040008064
:104C20000100020004000800100020000000000045
:104C30000000000000000000000000000000000074
:104C40000000000000000000000000000000000064
:104C50000000000000000000000000000000000054
:104C60000000000000000000000000000000000044
:104C70000000000000000000000000000000000034
:104C800003E00C18180C10063006380638063806F3
:104C9000000C0018007000C00080008000800080C0
:104CA00000000000018003C003C00180000000007C
:104CB00000000000000000000000000000000000F4
:104CC00000000000000000000000000000000000E4
:104CD00000000000000000000000000000000000D4
:104CE00000000000000000000000000000000000C4
:104CF00000000000000000000000000000000000B4
:104D000003E006100C08180430D431B221326332AB
:104D1000632266226622662266626664666426E80C
:104D2000333030021004180C0C1803E000000000AF
:104D30000000000000000000000000000000000073
:104D40000000000000000000000000000000000063
:104D50000000000000000000000000000000000053
:104D60000000000000000000000000000000000043
:104D70000000000000000000000000000000000033
:104D8000038003800380038004C004C004C004C007
:104D90000C4008600860086008201FF010301030D8
:104DA0001030201820182018601CF83E0000000069
:104DB00000000000000000000000000000000000F3
:104DC00000000000000000000000000000000000E3
:104DD00000000000000000000000000000000000D3
:104DE00000000000000000000000000000000000C3
:104DF00000000000000000000000000000000000B3
:104E00007FE018381818180C180C180C180C180C0F
:104E1000181818301FE01818180C1804180618066F
:104E2000180618061806180C18187FF00000000065
:104E30000000000000000000000000000000000072
:104E40000000000000000000000000000000000062
:104E50000000000000000000000000000000000052
:104E60000000000000000000000000000000000042
:104E70000000000000000000000000000000000032
:104E800003E0061C080C18063002300230006000F7
:104E90006000600060006000600060006000600012
:104EA00030023002100418080C1003E0000000006B
:104EB00000000000000000000000000000000000F2
:104EC00000000000000000000000000000000000E2
:104ED00000000000000000000000000000000000D2
:104EE00000000000000000000000000000000000C2
:104EF00000000000000000000000000000000000B2
:104F00007FC0187018181808180C180C1806180606
:104F100018061806180618061806180618061804A3
:104F2000180C180C1818181818607FC00000000022
:104F30000000000000000000000000000000000071
:104F40000000000000000000000000000000000061
:104F50000000000000000000000000000000000051
:104F60000000000000000000000000000000000041
:104F70000000000000000000000000000000000031
:104F80007FFC180C180418021802180018001810DA
:104F9000181018301FF018301810181018001800CA
:104FA0001800180218021804180C7FFC00000000FA
:104FB00000000000000000000000000000000000F1
:104FC00000000000000000000000000000000000E1
:104FD00000000000000000000000000000000000D1
:104FE00000000000000000000000000000000000C1
:104FF00000000000000000000000000000000000B1
:105000007FFC181C18041802180218001800181049
:10501000181018301FF01830181018101810180039
:10502000180018001800180018007E00000000008A
:105030000000000000000000000000000000000070
:105040000000000000000000000000000000000060
:105050000000000000000000000000000000000050
:105060000000000000000000000000000000000040
:105070000000000000000000000000000000000030
:1050800003C00C30081018183008300820006000E9
:105090006000600060006000607E6018601820188A
:1050A00030183018101818180C2007C00000000025
:1050B00000000000000000000000000000000000F0
:1050C00000000000000000000000000000000000E0
:1050D00000000000000000000000000000000000D0
:1050E00000000000000000000000000000000000C0
:1050F00000000000000000000000000000000000B0
:10510000FC3F300C300C300C300C300C300C300CC0
:10511000300C300C3FFC300C300C300C300C300CB0
:10512000300C300C300C300C300CFC3F0000000018
:10513000000000000000000000000000000000006F
:10514000000000000000000000000000000000005F
:10515000000000000000000000000000000000004F
:10516000000000000000000000000000000000003F
:10517000000000000000000000000000000000002F
:105180001FF8018001800180018001800180018081
:105190000180018001800180018001800180018007
:1051A000018001800180018001801FF80000000063
:1051B00000000000000000000000000000000000EF
:1051C00000000000000000000000000000000000DF
:1051D00000000000000000000000000000000000CF
:1051E00000000000000000000000000000000000BF
:1051F00000000000000000000000000000000000AF
:1052000007FE0060006000600060006000600060F9
:10521000006000600060006000600060006000608E
:10522000006000600060006000600060706070C03E
:1052300071803F000000000000000000000000003E
:10524000000000000000000000000000000000005E
:10525000000000000000000000000000000000004E
:10526000000000000000000000000000000000003E
:10527000000000000000000000000000000000002E
:105280007E7C18301820186018401880188019008B
:1052900019001B001D801D8018C018C01860186000
:1052A000183018301830181818187E3E000000000A
:1052B00000000000000000000000000000000000EE
:1052C00000000000000000000000000000000000DE
:1052D00000000000000000000000000000000000CE
:1052E00000000000000000000000000000000000BE
:1052F00000000000000000000000000000000000AE
:105300007E00180018001800180018001800180077
:1053100018001800180018001800180018001800CD
:105320001800180218021804180C7FFC0000000076
:10533000000000000000000000000000000000006D
:10534000000000000000000000000000000000005D
:10535000000000000000000000000000000000004D
:10536000000000000000000000000000000000003D
:10537000000000000000000000000000000000002D
:10538000F00F381C381C381C381C382C2C2C2C2CBA
:105390002C2C2C4C2C4C264C264C264C268C228C0F
:1053A000238C238C230C230C210CF13F00000000E4
:1053B00000000000000000000000000000000000ED
:1053C00000000000000000000000000000000000DD
:1053D00000000000000000000000000000000000CD
:1053E00000000000000000000000000000000000BD
:1053F00000000000000000000000000000000000AD
:10540000F01F380438042C042C042604260423043A
:1054100023042184218420C420C4206420642034F7
:105420002034201C201C200C200CF804000000005C
:10543000000000000000000000000000000000006C
:10544000000000000000000000000000000000005C
:10545000000000000000000000000000000000004C
:10546000000000000000000000000000000000003C
:10547000000000000000000000000000000000002C
:1054800003C00C3018181008300C300C6004600693
:10549000600660066006600660066006600620061C
:1054A000300C300C100818180C3003C0000000003D
:1054B00000000000000000000000000000000000EC
:1054C00000000000000000000000000000000000DC
:1054D00000000000000000000000000000000000CC
:1054E00000000000000000000000000000000000BC
:1054F00000000000000000000000000000000000AC
:105500007FF01818180C1806180618061806180642
:105510001806180C18181FE01800180018001800BA
:10552000180018001800180018007E000000000085
:10553000000000000000000000000000000000006B
:10554000000000000000000000000000000000005B
:10555000000000000000000000000000000000004B
:10556000000000000000000000000000000000003B
:10557000000000000000000000000000000000002B
:1055800003C00C3018181008300C300C6006600690
:1055900060066006600660066006600660066006DB
:1055A000278438CC386C18780C7003E00032003C4B
:1055B000001C0000000000000000000000000000CF
:1055C00000000000000000000000000000000000DB
:1055D00000000000000000000000000000000000CB
:1055E00000000000000000000000000000000000BB
:1055F00000000000000000000000000000000000AB
:105600007FE018381818180C180C180C180C180C07
:10561000181818301FE018C018C0186018601860FB
:10562000183018301830181818187E1E00000000A6
:10563000000000000000000000000000000000006A
:10564000000000000000000000000000000000005A
:10565000000000000000000000000000000000004A
:10566000000000000000000000000000000000003A
:10567000000000000000000000000000000000002A
:105680000FC8187830186018600860086000700053
:105690003C001F0007C001F000780018001C400CFF
:1056A000400C600C200C3018383027E0000000005F
:1056B00000000000000000000000000000000000EA
:1056C00000000000000000000000000000000000DA
:1056D00000000000000000000000000000000000CA
:1056E00000000000000000000000000000000000BA
:1056F00000000000000000000000000000000000AA
:105700003FFC3184218641824182018001800180F9
:105710000180018001800180018001800180018081
:105720000180018001800180018007E0000000000D
:105730000000000000000000000000000000000069
:105740000000000000000000000000000000000059
:105750000000000000000000000000000000000049
:105760000000000000000000000000000000000039
:105770000000000000000000000000000000000029
:10578000FC3E300830083008300830083008300857
:105790003008300830083008300830083008300849
:1057A00030083008300818101C2007C00000000026
:1057B00000000000000000000000000000000000E9
:1057C00000000000000000000000000000000000D9
:1057D00000000000000000000000000000000000C9
:1057E00000000000000000000000000000000000B9
:1057F00000000000000000000000000000000000A9
:105800007C1E180C1808180818080C100C100C1026
:105810000C100C2006200620062006400340034002
:1058200003400380018001800100010000000000AE
:105830000000000000000000000000000000000068
:105840000000000000000000000000000000000058
:105850000000000000000000000000000000000048
:105860000000000000000000000000000000000038
:105870000000000000000000000000000000000028
:10588000F3CF618661842184208430C431C431C463
:1058900031C831C811C812481A681A681A701C70C9
:1058A0000C700C700C300C20082008200000000048
:1058B00000000000000000000000000000000000E8
:1058C00000000000000000000000000000000000D8
:1058D00000000000000000000000000000000000C8
:1058E00000000000000000000000000000000000B8
:1058F00000000000000000000000000000000000A8
:105900007C3E180818100C100C200620064003409E
:10591000038001800180018001C002C00260046038
:105920000470083008301818101C7C3E000000007D
:105930000000000000000000000000000000000067
:105940000000000000000000000000000000000057
:105950000000000000000000000000000000000047
:105960000000000000000000000000000000000037
:105970000000000000000000000000000000000027
:105980007E3E3808180818100C100C100C20062049
:1059900006200340034003800180018001800180D4
:1059A0000180018001800180018007E0000000008B
:1059B00000000000000000000000000000000000E7
:1059C00000000000000000000000000000000000D7
:1059D00000000000000000000000000000000000C7
:1059E00000000000000000000000000000000000B7
:1059F00000000000000000000000000000000000A7
:105A00001FFE1C0C180C30182018003000600060BD
:105A100000C000C0018001800300030006000600F2
:105A20000C00180218063004301C7FFC0000000037
:105A30000000000000000000000000000000000066
:105A40000000000000000000000000000000000056
:105A50000000000000000000000000000000000046
:105A60000000000000000000000000000000000036
:105A70000000000000000000000003FC0300030021
:105A800003000300030003000300030003000300FE
:105A900003000300030003000300030003000300EE
:105AA000030003000300030003000300030003FCE2
:105AB00000000000000000000000000000000000E6
:105AC00000000000000000000000000000000000D6
:105AD00000000000000000000000000000000000C6
